:020000040800F2
:10000000000003205D060008692200086B2200083A
:100010006D2200086F220008712200080000000015
:10002000000000000000000000000000E16D00087A
:100030007322000800000000716E0008ED660008E1
:10004000AD060008AD060008AD060008AD060008C4
:10005000AD060008AD060008AD060008AD060008B4
:10006000AD060008AD060008AD060008AD060008A4
:10007000AD060008AD060008AD060008AD06000894
:10008000AD060008AD060008AD060008AD06000884
:10009000AD060008AD060008AD060008AD06000874
:1000A000AD060008AD060008AD060008AD06000864
:1000B000AD060008AD060008AD060008AD06000854
:1000C000AD060008AD060008AD060008AD06000844
:1000D000AD060008AD060008AD060008AD06000834
:1000E000AD060008AD060008AD060008AD06000824
:1000F000AD060008AD060008AD060008AD06000814
:10010000AD060008AD060008AD060008AD06000803
:10011000AD060008AD06000875220008AD0600080F
:10012000AD060008AD060008AD060008AD060008E3
:10013000AD060008AD060008AD060008AD060008D3
:10014000AD060008AD060008AD060008AD060008C3
:10015000AD060008AD060008AD060008AD060008B3
:10016000AD060008AD060008AD060008AD060008A3
:10017000AD060008AD060008AD060008000000004E
:10018000AD060008AD060008AD060008AD06000883
:10019000AD060008AD060008AD060008AD06000873
:0C01A00081220008AD0600088D22000836
:1001B00010B5054C237833B9044B13B10448AFF3A1
:1001C00000800123237010BD800300200000000088
:1001D000BC46020808B5034B1BB103490348AFF303
:1001E000008008BD0000000084030020BC46020817
:1001F00001F0FF01102A2BDB10F0070F08D010F8D8
:10020000013B013A8B422DD010F0070F42B3F6D1DB
:10021000F0B441EA012141EA014122F007047FF0F4
:1002200000070023F0E80256083C85EA010586EA4B
:10023000010685FA47F5A3FA87F586FA47F6A5FA87
:1002400087F68EB9EED1F0BC01F0FF0102F0070293
:1002500032B110F8013B013A83EA010313B1F8D13E
:100260000020704701387047002D06BF354603381F
:10027000073815F0010F07D1013015F4807F02BF58
:10028000013015F4C03F0130F0BC0138704700BFA9
:100290007BB972B90029BEBF00204FF0004106E0D3
:1002A00008BF00281CBF6FF000414FF0FF3000F086
:1002B000D3B9ADF1080C6DE904CE002909DB002BA0
:1002C0001ADB00F04DF8DDF804E0DDE9022304B0AC
:1002D0007047404261EB4101002B1BDB00F040F80E
:1002E000DDF804E0DDE9022304B0404261EB4101A6
:1002F000524263EB43037047524263EB430300F007
:100300002FF8DDF804E0DDE9022304B0404261EBA0
:1003100041017047524263EB430300F021F8DDF8DE
:1003200004E0DDE9022304B0524263EB430370476B
:1003300053B94AB9002908BF00281CBF4FF0FF314C
:100340004FF0FF3000F088B9ADF1080C6DE904CE34
:1003500000F006F8DDF804E0DDE9022304B07047A0
:100360002DE9F047089D8E4604468846002B4AD169
:100370008A42174662D9B2FA82F64EB1C6F120031C
:1003800001FA06F820FA03F3B74043EA0808B4403C
:100390004FEA174E1FFA87FCB8FBFEF1230C0EFB49
:1003A000118843EA084301FB0CF29A4209D9FB1871
:1003B00001F1FF3080F0EA809A4240F2E780023992
:1003C0003B449A1AA3B2B2FBFEF00EFB102243EAA2
:1003D000024300FB0CFC9C4509D9FB1800F1FF32DD
:1003E00080F0D6809C4540F2D3803B44023840EAFE
:1003F0000140A3EB0C0300211DB1F3400022C5E92D
:100400000032BDE8F0878B4205D90DB1C5E9000186
:1004100000210846F5E7B3FA83F1002946D1734578
:1004200002D3824200F20581841A6EEB030201209E
:100430009046002DE5D0C5E90048E2E7002A00F02B
:100440009080B2FA82F6002E40F0A4808A1A030C43
:100450004FEA174E80B2BCB20121B2FBFEFC0EFB8C
:100460001C2243EA024304FB0CF29A4207D9FB1810
:100470000CF1FF3802D29A4200F2E080C4469B1A87
:10048000B3FBFEF20EFB123340EA034302FB04F41B
:100490009C4207D9FB1802F1FF3002D29C4200F2C5
:1004A000CA8002461B1B42EA0C40A5E7C1F12006A8
:1004B0008B4022FA06F71F430EFA01F420FA06F3E6
:1004C0002EFA06FE4FEA1749234300FA01F81FFAF5
:1004D00087FCBEFBF9F01C0C09FB10EE44EA0E444D
:1004E00000FB0CFEA64502FA01F209D93C1900F105
:1004F000FF3A80F09C80A64540F2998002383C4447
:10050000A4EB0E041FFA83FEB4FBF9F309FB1344BA
:100510004EEA044403FB0CFCA44508D93C1903F142
:10052000FF3E80F08280A4457FD9023B3C4443EAF1
:100530000040A4EB0C04A0FB02EC64457346E146CA
:1005400062D35FD05DB1B8EB030264EB090404FA37
:1005500006F622FA01F31E43CC40C5E900640021EF
:100560004FE7B1FBF2FC010C41EA0E4180B240EAD8
:1005700001423B4638463C46B846BE462026B1FBC3
:10058000F7F1A2EB080241EA0C4166E7014618E7E1
:1005900010462CE7C6F120022EFA02F3B740B14014
:1005A00020FA02F24FEA174E0A43B3FBFEF8BCB240
:1005B0000EFB1833110C41EA034108FB04F9B0406B
:1005C00089454FEA104380B23ED9791808F1FF3CC3
:1005D00001D289451FD8A1EB0901B1FBFEF909FB46
:1005E00004F80EFB191192B242EA0142424529D2A7
:1005F000BA1809F1FF31C4D24245C2D2A9F10201B1
:100600003A44BEE7F0459DD2BEEB02036CEB070C0B
:100610000138E14696E7A7EB09094944A8F1020C25
:10062000B1FBFEF909FB04F8DBE773467FE75046B0
:1006300066E70846FDE63B44023A33E7ACF1020CBC
:100640003B441CE749469CE7A1EB0901C446B1FBCA
:10065000FEF909FB04F8C4E7704700BFDFF834D0A7
:10066000002103E00C4B5B58435004310B480C4B0A
:1006700042189A42F6D30B4A02E0002342F8043BA8
:10068000094B9A42F9D303F0B3FD23F0A9FA01F024
:1006900085F8704700000320900113080000002037
:1006A0006801002080030020D8CA0120FEE77047BF
:1006B00008B500F0BFFDBDE8084000F041BD00F006
:1006C000BBBD704710B50421044622F09DF82046BA
:1006D00010BD000038B50C4B0C4C18800C4B822020
:1006E00019806368984740F6110398420AD1094D72
:1006F00023682C60822098472B688220DB6898470B
:10070000002038BD0120FCE7A60300205000002097
:10071000A4030020A80300204FF4A071F020FFF7ED
:10072000D9BF0000F7B5394D2B6804461B698220FC
:100730009847208000284ED02B680DF106025B6997
:1007400001A982209847324B1B78002B4BD0BDF873
:10075000062040F674639A423FD9ADF80630BDF8E2
:1007600006209B1A9BB20A2B42D90B22B3FBF2F351
:10077000284A1288934201D9013A93B2BDF8042065
:10078000254840F6B8318A4234D8C2F571620E323B
:10079000016892B20F25B2FBF5F2204D2D88AA42D6
:1007A00084BF05F1FF35AAB28A4215468EB22AD916
:1007B000921B91B21A4E3768BB42BAB28CBF9A1ADA
:1007C000D21A92B211440529C4BF05603360036890
:1007D00063803368A38003B0F0BDB32A9CBFB4220A
:1007E000ADF80620BBE7BDF80630A3F5B473B9E752
:1007F0000023C3E7C2F56D62083292B20E2A016887
:10080000C8D800252A46891A89B2D3E7A803002050
:1008100058AD0020A4030020A0030020A603002060
:100820009C03002037B568460D461446FFF77AFF53
:10083000BDF8000030B1BDF802302B60BDF80430C7
:100840002360012003B030BD032821D8DFE800F089
:10085000020B12190F4B1A68B2FA82F252090421E4
:100860000D4803F059BF0B4B5A68B2FA82F2520995
:100870000821F5E7074B9A68B2FA82F25209102173
:10088000EEE7044BDA68B2FA82F252092021E7E778
:10089000704700BFAC03002000100240032821D89D
:1008A000DFE800F0020B12190F4B1A68003A18BF6C
:1008B000012204210D4803F02FBF0B4B5A68003A68
:1008C00018BF01220821F5E7074B9A68003A18BFC4
:1008D00001221021EEE7044BDA68003A18BF01222A
:1008E0002021E7E7704700BFAC0300200010024062
:1008F00003280DD8DFE800F00206080A04210548A5
:1009000003F00FBF0821FAE71021F8E72021F6E7EE
:10091000704700BF0010024008B5032811D8DFE877
:1009200000F0020A0C0E0421074803F0EFFE431EFC
:100930005842584108BD0821F6E71021F4E720216C
:10094000F2E70020F3E700BF0010024070B5084D49
:1009500000240126E0B2FFF7DFFF18B12B68012B5E
:1009600018BF2E600134052C05F10405F2D170BDCD
:10097000AC030020012380F8781080F879307047AC
:100980007047002070470000034B4164003918BFD6
:1009900001211970704700BF97BD012070470020EA
:1009A0007047836B0BB10846184770474FF6FF70CE
:1009B0007047406803689B691847704770477047E5
:1009C0007047704710B5044600F04CFD236803499A
:1009D000D3F890302046BDE810401847000000D002
:1009E00008B503680446D3F8843098472368204646
:1009F000DB6F984700F0ECF8236820465B6F984760
:100A0000292001F051F900F0E3F8236820465B6FDC
:100A10009847F8E710B5044608F0F8FF2368204629
:100A2000D3F8BC30BDE81040184700F0FFBC00F020
:100A300003BD00F035BD00F0D5BC00F045BD00F0B1
:100A40004DBD00F0D9BC08F00FBA10B584210446A2
:100A500021F0DAFE204610BD10B590F8341090F861
:100A600078400C4B8C421A7809D03AB90A4A0B49A3
:100A70001488088810800C8001221A7010BD002A8A
:100A8000FCD0054A05491488088810800C80002293
:100A9000F3E700BF90BD01208CBD01208EBD012079
:100AA00070B50D46194635B9094B0A4A0A4840F255
:100AB000FF2122F0E5FDC0E90F52084B003A18BFB4
:100AC00001221A700368BDE87040D3F890301847CF
:100AD0002C47020864470208B247020896BD01206D
:100AE00008B5094B1B888B4203D8084B1B889342DF
:100AF00005D9074B074A0848A32122F0C1FD074B3F
:100B00001980074B1A8008BD8CBD01208EBD0120C5
:100B1000F74702085A480208B247020892BD01206E
:100B200094BD0120034690F87A0018B15868036814
:100B30001B68184770470000012108B500220846CD
:100B400005F05EFE0A4B186028B90A4B0A4A2821B4
:100B50000A4822F095FD00220421012005F0F8FE4C
:100B6000074B186018B9074B034A2C21F0E708BD62
:100B7000C00300209D480208E64802081549020803
:100B8000BC03002059490208024B4FF0FF3118689E
:100B900005F080BEC0030020014B186805F0A6BE1A
:100BA000C0030020024B0021186805F073BE00BF8F
:100BB000C0030020FFF7F0BF03480449006800238A
:100BC0001A4605F000BF00BFBC030020040000204F
:100BD00013B5084C00231A4601A9206805F024FF2C
:100BE00020684FF0FF33002201A905F01DFF02B07D
:100BF00010BD00BFBC03002003685B6C18470120D8
:100C0000704703689B6A1847FEE740F2EF30704771
:100C1000054B0360054B4FF08062C3F88820BFF39B
:100C20004F8FBFF36F8F70476854020800E100E0F8
:100C300010B504464FF45A61FFF7EAFF204621F051
:100C4000E3FD204610BD000082B0002301930E4B4F
:100C50001A6B42F400021A631A6B02F4000201924A
:100C6000019A1A6942F400021A611A6922F4000218
:100C70001A61064B064A1A61064A5A61064B4FF042
:100C800080629A6002B0704700380240ECAE0020EB
:100C9000E90E0008090C000800E100E008B50A2888
:100CA00009D8DFE800F006100E0808080810101038
:100CB0001000022008BD054B054A0648902122F08D
:100CC000DFFC0020F6E70120F4E700BF9B490208A3
:100CD000B6490208014A020838B50C46887FFFF77A
:100CE000DDFFA58AE28A164B2169586342EA054274
:100CF0005A64628BD963521B1A642568082D0ED181
:100D00009A611A615862207F0E4A42EA0062DA61F3
:100D1000E2681A620C4A5961D9601A6038BD002233
:100D2000D8611A61E1680A0A480902F4784200F4BD
:100D3000FC600243C1F3C4010A439A63034AECE72F
:100D400000B002400900010001230200012303005A
:100D500008B50B280BD8DFE800F00612100A0A0AC3
:100D60000A0808080808022008BD0520FCE7054B12
:100D7000054A06486F2122F083FC0020F4E7012099
:100D8000F2E700BF9B490208434A0208014A0208F1
:100D90002DE9F04191F81D800C464046FFF7D8FF41
:100DA000A77F05463846FFF7D3FF06463846FFF7CC
:100DB00075FFA18A628B444B521A1A649A61228B86
:100DC000521A1A61E28A586342EA01425A6421695E
:100DD0006268D963DA602068802828D0227F0FD823
:100DE000202867D0402865D004281AD0364B45EA21
:100DF000026545F40035B845DD6161D0334A44E011
:100E0000B0F5807F04D0B0F5007FEFD1304800E02E
:100E1000304840EA0262DA61E2681A625E62596151
:100E200032E045EA026242F40032DA61F6E7A06895
:100E3000021DDA62227F45EA026545F40035DD6174
:100E40005E625961017841B1012921D0224B234AC8
:100E500023484FF48D7122F013FCDA69418822F4A3
:100E60007F42013922F0100242EA0122DA610121B7
:100E7000154BDA6942F02002DA61DA699206FCD495
:100E800010229A600029B9D0164A1A60BDE8F08194
:100E9000B2F1FF01DA69408822F47F4200F1FF30AD
:100EA00022F0100242EA002242F0100218BF012193
:100EB000DA61DDE745EA0262034B42F40032B4E74F
:100EC00042F20132E1E700BF00B00240012301001D
:100ED000090002000A0002008D4A0208A74A02081F
:100EE000014A020801230200024B1B68586803688C
:100EF0005B69184798BD012070B5044625460A4B2A
:100F00000C30002660602672667245F8203B602235
:100F1000294608F0D1FE04F55A63EE6024359D425F
:100F2000FBD1204670BD00BF68540208034B1A680D
:100F3000D207FCD423229A60704700BF00B0024061
:100F40007047000030B50F4C2568ED07FCD4232511
:100F50000904A56041F001010225FF2B656361646E
:100F6000E0630AD00849656241EA0363E361074B25
:100F700022626061E060236030BDE561039BA36392
:100F8000034BF8E700B00240090001000100020035
:100F90000100030030B50E4C2568ED07FCD4232575
:100FA0001204A56042F001020225FF2B6563626412
:100FB000E063E16008D01B0643F00213E361054BD8
:100FC00065626061236030BD034BE3610123F9E793
:100FD00000B0024001000200020002FF30B50B4CDD
:100FE0002568ED07FCD4232512041B06A56043F4F5
:100FF0000033022542F0010265636264E063E16050
:10100000E361034B65626061236030BD00B0024064
:1010100001000200012070470C2070470C2303FBE5
:101020000100083070470C2303FB010008307047B3
:101030000120704749F64400704749F6440303FB1A
:1010400001000830704749F6440303FB01000830F3
:101050007047012070471020704700EB01100830E6
:10106000704700EB011008307047084601F06EBA77
:1010700010B5034B0360044607F04DFC204610BD3D
:101080002055020810B50446FFF7F2FF2046142150
:1010900021F0BAFB204610BD10B5034B0360044697
:1010A00007F039FC204610BDEC54020810B5044688
:1010B000FFF7F2FF204649F64C0121F0A5FB204640
:1010C00010BD000010B5034B0360044607F023FC7D
:1010D000204610BDB854020810B50446FFF7F2FFD1
:1010E0002046182121F090FB204610BD10B5094B79
:1010F0000360044600F518407830FFF7B9FF04F1AB
:101100002C00FFF7C9FF04F11400FFF7DBFF2046B6
:1011100010BD00BF5455020808B50248FFF7E6FFAE
:1011200008BD00BF9C12002010B50446FFF7DEFF8B
:10113000204649F6EC1121F067FB204610BD000067
:101140002DE9F34101F01CF9054601F01DF90024D9
:101150000146234628462246009412F0A3FA274B64
:10116000274A1A60204602F093F8264D264B274A5C
:1011700027489A6012F0FEF92B68BFF35B8FDB07FC
:1011800036D4284621F042FB90B3224C224F234B09
:10119000236007F1180604F1140004F12C086060C4
:1011A000C4F80880E760266107F0B6FB1C4B63615A
:1011B000404607F0B1FB1B4BE362384607F0ACFB3F
:1011C00004F5104303F68C00174AC3F8782802F0A0
:1011D0006BFD224607F11401304602F0D3F8304689
:1011E00001F0B4F9114822F069FA284621F01AFBFF
:1011F0000F4802B0BDE8F041FFF7E4BBFCBD0120A1
:101200004804002098120020680400204C040020AC
:10121000080000209C12002014AB00205455020846
:10122000B8540208EC5402082055020819110008AD
:10123000C4030020704700000148FFF7D1BB00BF86
:10124000C403002070B5264E264C274D274B236043
:101250003046FFF751FE284617F02AFB24480FF0CE
:10126000D7FA244B2448DC6000224FF48071C3E994
:10127000121222491A86C3E91A12214983F858200A
:10128000C3E91E011F49C3F880101F491F480B60A6
:10129000F021C3E90422C3E90622C3E90822C3E915
:1012A0000A22C3E90E22C3E91022C3E91422C3E9CA
:1012B00017225A6683F870205A67C3E901650180D6
:1012C0001348018013484FF4A07101801248018037
:1012D00012490A70012283F83420114A1A6070BD45
:1012E000F404002094120020680400201C47020827
:1012F0004C040020C4030020000001010100000193
:10130000000450001A00140098BD01208CBD01207B
:1013100092BD01208EBD012094BD012090BD012011
:101320007C5302080148FFF773BC00BFF40400209F
:101330000020704781807047C180704701817047ED
:10134000418170477047704770477047704710B4CD
:10135000C4880368121B84885B6D091B12B25DF898
:10136000044B09B218474FF6FF7383814FF0FF33E8
:1013700003621368C36110607047002070478B8858
:10138000838001207047704780F82610704790F8DE
:101390002600704710B50022B1F90840B1F90A10D3
:1013A000028042808480C18010BD00220280428081
:1013B0008280C28070470177704780ED080A7047CD
:1013C00080F82410704780F825107047012070477E
:1013D000983070478C307047843070477047704742
:1013E00070470000034B902283F85A2383F8582358
:1013F000704700BF00E100E0094A0A49D3680A4883
:10140000C3F30A03013B9BB20B801169C1F30A01CC
:10141000013901801364536B43F001035363704738
:10142000006801408AAC002088AC0020014BD3F852
:10143000AC00704700680140024B0122C3F8AC10B9
:101440005A6270470068014010B52C21044621F013
:10145000DBF9204610BD10B5BC21044621F0D4F9BB
:10146000204610BD70B5044607F053FD23689D6EFD
:101470000DF08AFF01462046A8472368054AD3F8A5
:101480008C502046AC460023BDE87040A2F51631D2
:10149000604700BF00B004D007F022BD07F02CBDAC
:1014A00007F0E8BC07F057BE90F8252012B103689A
:1014B0005B691847704790F825201AB190F82420EE
:1014C00002B1186070470000034B4FF080629A60D1
:1014D0004FF080729A60704700E100E0084B4FF0D7
:1014E0008062C3F88820BFF34F8FBFF36F8F4FF038
:1014F0008072C3F88820BFF34F8FBFF36F8F7047A0
:1015000000E100E070B50023124E8380124B0360AF
:10151000336893F8582005460AB1D86C00B998682A
:101520000368DB6A98473368B0FA80F4D86C6409C2
:1015300030B10368DB6A9847002808BF44F0010413
:101540002CB9064B064A07482C2122F099F8284668
:1015500070BD00BF98BD012068550208E54A020829
:10156000434B02087C4B020870B5254E3568BFF32B
:101570005B8F15F0010540D1304621F047F9002876
:101580003BD0204C204B256104F13400C4E90035E8
:10159000C4E90255E584A562A5850FF01EFC04F19F
:1015A00058000AF03DF8194BA3652046184B40F847
:1015B000843BFFF7A7FF174BC4F884302433C4F8EB
:1015C0008C304FF4C803C4E928350023C4F8AC308C
:1015D000C4F8B030C4F8B430C4F8B8300E480F4B7B
:1015E000C4F89050C4F89C50C4F8A850C4F898307F
:1015F00022F064F8304621F015F9024870BD00BFB2
:101600008CAC002090AC0020845E02088855020853
:1016100000560208385E0208E1130008185E02084E
:1016200038B5184C23685BB3174B184A1B6C1188EC
:101630008B4216D1164B198803F076FE236893F877
:101640006A200025013283F86A2083F87C50FFF776
:10165000B3FA206808F0DAF92846BDE83840FFF709
:10166000F3B803F061FE2468236820461B6A98479C
:10167000012384F87C300020BDE83840FFF70EB924
:1016800038BD00BF98BD0120006801408AAC002031
:1016900088AC002007B5064BADF806001B6805486E
:1016A00001220DF1060104F0DFFB03B05DF804FB3D
:1016B0000C00002098AD0020F7B50F4E0F4F00250D
:1016C0000121304603F022F8012804460FD14DB91C
:1016D00054238DF8073038680A232A460DF1070194
:1016E00005F071F90A2005F07FF82546E8E70028A3
:1016F0000CBF04462C46F5E70000024054AD002024
:1017000030B595B0102200210AA822F0C0F91422A9
:10171000002103A822F0BBF900241E4B01941A6C8F
:1017200042F080521A641B6C03F080530193019BBA
:10173000194B02941A6842F440421A601B6803F481
:10174000404302930122029B4FF48033CDE90823EA
:1017500002254FF480030821CDE90E534FF4B473F2
:10176000CDE9101308A804231393129503F034FE57
:1017700003F0F8FD0F23CDE903354FF4A0504FF4EB
:101780008053CDE90603052103A8059404F000F871
:1017900015B030BD00380240007000402DE980488F
:1017A0009BB002F033FDFFF7ABFF142200210DA820
:1017B00022F06DF90024C84B00941A6BC748C84D3D
:1017C00042F010021A631A6B02F010020092009AA3
:1017D00001941A6B42F020021A631A6B02F0200285
:1017E0000192019A02941A6B42F080021A631A6BFA
:1017F00002F080020292029A03941A6B42F00402F1
:101800001A631A6B02F004020392039A04941A6B8F
:1018100042F001021A631A6B02F001020492049A68
:1018200005941A6B42F002021A631A6B02F002026C
:101830000592059A06941A6B42F040021A631A6BDD
:1018400002F040020692069A07941A6B42F00802D0
:101850001A631B6B03F00803224607933C21079B86
:1018600002F05AFF9F480122022102F055FF224652
:101870009C48042102F050FF22469B484FF44051FF
:1018800002F04AFF01263C23CDE90D3693480F9420
:1018900003230DA90227109302F054FE91480DA9CD
:1018A000CDE90D76CDE90F4402F04CFE04238D48BE
:1018B0000DA9CDE90D36CDE90F4702F043FE4FF4F7
:1018C000405389480DA9CDE90D36CDE90F4702F007
:1018D00039FE0DA985480F94CDE90D6402F032FE62
:1018E0008348844B036002F023FDDFF82CC2824B57
:1018F0002C62C5E900C328464FF48043C5E904348F
:10190000C5E90244C5E9064403F014F9102128464C
:1019100003F058FB2146284603F073FB774DDFF8B0
:10192000FCE1AC624FF48273C5E900E34FF4007848
:101930001823C5E9068328460A23C5E90244C5E9F8
:101940000444C5E90844EB6204F032FA8F232246CE
:10195000394664488DF824308DF8344002F0DCFEBE
:1019600032464FF47A7309A9284604F07DFA4FF401
:101970007A7332460DA9284604F022FC32463946D5
:1019800058485F4D02F0C8FE9DF83430D32B04BF99
:101990005C4B1E705C4B0127C5E900374FF0100A05
:1019A00040230024C5E904A34FF4C073C5E90634FD
:1019B0004FF40063C5E908344FF4005302264FF09A
:1019C0000409AB624FF0030B07230DA92846CDE9AC
:1019D0000D63CDE90F934FF00808C5E90249CDE941
:1019E00011B6139604F0C8F84FF6FF7209A92846FD
:1019F000CDE90A87089409970C9404F0DDF838467D
:101A000002F030FC4FF6FF7209A92846CDE90968BB
:101A1000CDE90B7404F0D0F84FF6FF7209A92846FF
:101A2000CDE909B8CDE90B9404F0C6F84FF40C7376
:101A30000893089B0C934FF6FF7209A92846CDE93D
:101A400009980B9704F0B8F840F26A51284604F060
:101A5000D1F8342221460DEB020022F018F82B4D6C
:101A60002B4B2C61C5E900340923C5E905371D233B
:101A7000C5E9073B40F20D1240F24313C5E90923C3
:101A800040F2171140F247132846C5E90B13C5E988
:101A90000244AC8685F8364003F04EFBFF21F0226D
:101AA000CDE912144FF4806005214FF4A073CDE905
:101AB0001401CDE90E240DA9CDE91642284622468F
:101AC000144D1893CDE910360D94ADF864408DF89F
:101AD000664003F0FCFB23E00038024000100240A7
:101AE00098AE002000080240000C024000000240B6
:101AF0002CAF002000300240A086010098AD0020ED
:101B000064AD002058AD0020400100A0F0AD0020E1
:101B10000068014050AD0020005C004000500140D2
:101B20001A4B2B601B6898472B68194DDB68984748
:101B3000184B2846C5E90034C5E90264C5E90A46E0
:101B4000C5E90C4402F004FC3946284602F0B6FC14
:101B5000FEF7AEFDFEF7ABFD04F0D6FD0E4A3146B2
:101B6000504604F0F5FE0D4B0D4A186021460D4815
:101B700004F0F6FD0C4B0D4A186021460C4804F0A9
:101B8000EFFD0C4B186004F0D1FDFEE718000020BB
:101B9000ECAE002000B002404456020854AD0020D4
:101BA00080560208B916000860AD00205C56020895
:101BB000BF0600085CAD0020704770477FB5094B39
:101BC0008DF817201B6802930DF117020123009274
:101BD00001930A460146044803F054F807B05DF843
:101BE00004FB00BF1000002098AE00207FB500234A
:101BF0008DF81730084B1B6802930A4601230DF13C
:101C00001701009101930146044803F0CBF89DF8B9
:101C1000170007B05DF804FB1000002098AE00200C
:101C20001FB5084C24680092CDE901340A4601230F
:101C30000146054803F0B6F8003818BF012004B08B
:101C400010BD00BF1000002098AE002002F00ABBBB
:101C500010B5064C00222046042102F05DFD20460E
:101C60000122BDE81040042102F056BD00080240E8
:101C700038B50B4D044601220A484FF4005102F0DA
:101C80004BFD00220421284602F046FD2046FFF7C6
:101C900001FD28460122BDE83840042102F03CBD88
:101CA00000080240000C024038B50B4D04460022EB
:101CB0000A484FF4005102F02FFD0022042128466B
:101CC00002F02AFD2046FFF7E5FC28460122BDE888
:101CD0003840042102F020BD00080240000C024000
:101CE000F7B5144E144F05460C4630460022042129
:101CF00002F012FD00224FF40051384602F00CFDB4
:101D00002846FFF7C7FC0D4B0D481B68224601A96A
:101D100004F056FA384601224FF40051019C02F0BB
:101D2000FBFC30460122042102F0F6FC204603B001
:101D3000F0BD00BF00080240000C02400C00002073
:101D400098AD002002F08EBA0268034B9A4201D18E
:101D500002F076BA704700BF0010004070470000E4
:101D600082B00E4B00220092596C41F480415964BC
:101D7000596C01F48041009100990192196C41F075
:101D8000805119641B6C03F080530193019B0F2158
:101D90006FF0010002B002F08BBA00BF00380240C1
:101DA0000268094B9A4282B00BD100230193074B82
:101DB0001A6B42F480521A631B6B03F48053019335
:101DC000019B02B0704700BF003002400038024063
:101DD00007B50F4B02689A4216D10022A3F5F043D3
:101DE0000192196B41F4000119631B6B03F40003AA
:101DF000019305215A20019B02F05AFA5A2003B0A0
:101E00005DF804EB02F086BA03B05DF804FB00BF96
:101E100000B002402DE9F043044689B014220021AD
:101E200003A821F034FE2268244B9A4243D1244C6B
:101E3000244800250095236B43F004032363236BA0
:101E400003F004030093009B0195236B43F001030F
:101E50002363236B03F001030193019B4FF01209ED
:101E60004FF400734FF001080327042603A9CDE9BE
:101E70000339CDE90587079602F064FB4FF48073C0
:101E80001148079603A9CDE90339CDE9058702F08A
:101E900059FB0295236C43F400032364236C03F481
:101EA00000030293029B236A43F400032362236A24
:101EB00023F40003236209B0BDE8F083005C004016
:101EC000003802400008024000000240F0B599B01E
:101ED00004461422002107A821F0D9FD30220DEB81
:101EE0000200002121F0D3FD22685E4B9A4240F0AF
:101EF000B78008230C93C0231093042312930CA8DB
:101F00004FF40033159303F00BFD08B1FFF726FFE4
:101F1000554B5648002400945A6C42F080625A6433
:101F20005A6C02F080620092009A01941A6B42F09F
:101F300020021A631A6B02F020020192019A0294A5
:101F40001A6B42F001021A631A6B02F0010202924C
:101F5000029A03941A6B42F002021A631A6B02F09F
:101F600002020392039A04941A6B42F040021A632D
:101F70001A6B02F040020492049A05941A6B42F024
:101F800004021A631A6B02F004020592059A069481
:101F90001A6B42F008021A631B6B03F008030693E6
:101FA00002250E26069B0B964FF4806307A9CDE908
:101FB0000735CDE9094502F0C5FA41F658032C482A
:101FC0000B9607A9CDE907350927CDE9094502F0A8
:101FD000B9FA032327480B9707A9CDE90735CDE9BF
:101FE000094502F0AFFA4FF4706322480B9607A937
:101FF000CDE90735CDE9094502F0A4FA4FF40C63A9
:102000001D480B9607A9CDE90735CDE9094502F032
:1020100099FAC02319480B9607A9CDE90735CDE9F0
:10202000094502F08FFA082315480B9607A9CDE958
:102030000735CDE9094502F085FA4FF4A0530E4863
:102040000B9707A9CDE90735CDE9094502F07AFAE2
:1020500058202246052102F02BF9582002F05AF9A7
:1020600019B0F0BD00680140003802400014024081
:102070000000024000040240001802400008024034
:10208000000C024010B5044688B01422002103A8B9
:1020900021F0FDFC2268144B9A4223D103F56843DA
:1020A000002101915A6C114842F480125A645A6C12
:1020B00002F480120192019A02911A6B42F02002FE
:1020C0001A631B6B03F020030293029B4FF46072B0
:1020D00002230321CDE903230523CDE9061303A938
:1020E00002F030FA08B010BD005001400014024068
:1020F0002DE9F04186B0002303932B4B1C68002C84
:102100004FD14FF00108C3F80080284B00949A6B20
:10211000274842EA08029A639B6B03EA080300938C
:10212000022703260C25009B01A94FF63F03CDE9AA
:102130000137CDE9046502F005FA1E48059501A9AD
:10214000CDE90187CDE9034602F0FCF948F23313EB
:102150001948059501A9CDE90137CDE9034602F0FB
:10216000F1F94FF683731548059501A9CDE90137BB
:10217000CDE9034602F0E6F94CF2037310480595E9
:1021800001A9CDE90137CDE9034602F0DBF960236F
:102190000C48059501A9CDE90137CDE9034602F0C8
:1021A000D1F906B0BDE8F08134AF0020003802401C
:1021B00000140240000802400018024000100240D3
:1021C000000C02400004024070B588B00023029366
:1021D000204B1A6C42F010021A641B6C03F01003BF
:1021E0000293054601A903A8029B03F07BFB069B13
:1021F0004BBB03F067FB184E184B336040F2E733DC
:10220000F360174BB0FBF3F3013B736030460023E0
:102210003361B360B36104F0A3F9044680B930467A
:1022200004F074F8044658B9362002F073F80F2D04
:102230000DD822462946362002F03AF8094B1D6097
:10224000204608B070BD03F03DFB4000D3E70124F9
:10225000F6E700BF0038024038AF00200010004011
:1022600040420F00800000207047FEE7FEE7FEE7D7
:10227000FEE77047014804F087B800BF38AF002080
:10228000014802F0C7BF00BFF0AD0020014802F0D6
:102290008BB800BFECAE00200120704708B521F0DC
:1022A00099FC162303604FF0FF3008BD08B521F0FC
:1022B00091FC16230360FEE770B50D4614460E46EA
:1022C000731B9C4201DC204670BDAFF3008006F812
:1022D000010BF5E770B50D4614460E46731B9C4284
:1022E00001DC204670BD16F8010BAFF30080F5E766
:1022F0004FF0FF3070474FF400534B6000207047A1
:1023000001207047002070470A4A116808B503464B
:1023100009B9094911601068694603448B4206D91E
:1023200021F058FC0C2303604FF0FF3008BD136010
:10233000FCE700BF80AF0020D8CA0120704710B56D
:102340000421044620F060FA204610BD08B5032998
:1023500013D8DFE801F002060A0E00F0E5FF00687E
:1023600008BD00F0E1FF4068FAE700F0DDFF80689B
:10237000F6E700F0D9FFC068F2E70020F0E70000C0
:1023800000487047B85602080820704713B500246B
:1023900051B1036801948DF8034001AA9C680DF1C6
:1023A0000303A04702B010BD0846FBE7C089704791
:1023B000008A7047C088704780887047807A00F034
:1023C0007F007047807AC009704700207047000086
:1023D0009FED010A704700BF00000000806A70474F
:1023E000704710B50821044620F00EFA204610BDB3
:1023F0007047704700F598730868496803C37047D1
:10240000704770474160704770477047064BC0F88F
:102410004C310023C0F8503100F5A273C0F84801D8
:10242000C0F84031704700BFDD2600080123037269
:102430007047704710B4C26841685410034601EBFE
:102440006200D20748BF0A599B685DF8044B48BF39
:10245000D35818470346406830B19A681AB9D8680B
:1024600000F0010070470120704710B50C210446B0
:1024700020F0CAF9204610BD10B51021044620F006
:10248000C3F9204610BD10B54FF4AE71044620F0DC
:10249000BBF9204610BD10B50CF076FF0368BDE80F
:1024A0001040DB6B184710B50446D0F8400158B116
:1024B0000368DB68984738B1D4F8400103689B682B
:1024C00098470023C4F8403110BD0000044B1B683E
:1024D00093F858200AB1D86C00B99868704700BFCB
:1024E00098BD0120F8B5174604460E460DF00EF8CB
:1024F000124B1C60124B2360124B0025C4E951356E
:10250000114BC4E953551868036801219B68C4E95D
:102510004F55C4E955769847284600F0B9FEFFF7B5
:10252000D5FF18F06EF8FFF7D1FF18F0E5F8FFF7C8
:10253000CDFF18F0EDF82046F8BD00BFECBD01203E
:10254000885702087057020898BD0120064BC0F852
:102550004C310023C0F8503100F5A273C0F8480197
:10256000C0F84031704700BFDD260008064BC0F8B8
:102570004C310023C0F8503100F5A273C0F8480177
:10258000C0F84031704700BF9525000803685B6ABA
:10259000184700002DE9F14FD0E9556A0746B068A9
:1025A00003681B6A9847F72805D8444B444AA3217F
:1025B000444821F065F8706803681B6A98470F2843
:1025C00003D8414B3E4AA421F2E7F06803681B6A36
:1025D00098470B2803D83D4B394AA521E8E70CF072
:1025E000D3FEDFF8F09004300CF0F3FED9F80000D1
:1025F00010B10368DB689847D9F8000010B1036890
:102600001B689847DFF8D080D8F8000010B1036845
:102610005B699847D7F83C0110B103685B6898473D
:10262000D8F8000010B103681B689847D7F83C0140
:1026300010B103689B689847F0680021FFF7A6FF78
:102640004FF0000B224BC0F804B0044680F808B0ED
:102650000360B068036859465B6A9847054601F015
:10266000FFFA7068036859465B6A98472946064630
:1026700001F0D6FA331DC7F83C61C9F80040C8F82C
:102680000050CAF800302B68C6F808A02846DB685E
:10269000EE639847336830461B68984721462846C2
:1026A0000EF0FEFF236820461B69984723685B698C
:1026B000204601B0BDE8F04F184700BFFD4B0208AF
:1026C0008B4C02085F4D0208A64D0208494E0208D5
:1026D000DC570208E0BD0120DCBD01202DE9F14FEF
:1026E000D0E9556A0746B06803681B6A984749F6FF
:1026F0004303984205D8444B444AA321444820F060
:10270000BFFF706803681B6A98470F2803D8414BC6
:102710003E4AA421F2E7F06803681B6A98470B2839
:1027200003D83D4B394AA521E8E70CF02DFEDFF830
:10273000F09004300CF04DFED9F8000010B10368A1
:10274000DB689847D9F8000010B103681B68984708
:10275000DFF8D080D8F8000010B103685B699847B3
:10276000D7F83C0110B103685B689847D8F80000BF
:1027700010B103681B689847D7F83C0110B1036893
:102780009B689847F0680021FFF700FF4FF0000BAF
:10279000224BC0F804B0044680F808B00360B0686B
:1027A000036859465B6A9847054601F02DF9706841
:1027B000036859465B6A98472946064600F0FAFDC9
:1027C000331DC7F83C61C9F80040C8F80050CAF88A
:1027D00000302B68C6F808A02846DB68EE639847EF
:1027E000336830461B689847214628460EF058FF4C
:1027F000236820461B69984723685B69204601B01F
:10280000BDE8F04F184700BFFD4B0208EC4E020830
:102810005F4D0208A64D0208494E0208DC57020827
:10282000E0BD0120DCBD0120704770477047704754
:10283000704730B5036885B06D460181D3F88430A8
:10284000014604462846984795E807003C3484E84A
:10285000070005B030BD30B5036885B06D464181D5
:10286000D3F88430014604462846984795E8070087
:102870003C3484E8070005B030BD0022028042806D
:102880008280C280704780F83610704770B5036848
:1028900004461B6B154698472368294620465B6E05
:1028A000BDE87040184700207047806C7047704743
:1028B00070477047704770477047704770470368AC
:1028C000DB6A184730B4C26844685510034604EB0D
:1028D0006200D20748BF62599B6830BC48BFD358DA
:1028E00018470346406830B19A681AB9D86800F0B2
:1028F000010070470120704710B54C2104461FF0BD
:1029000083FF204610BD10B5102104461FF07CFF48
:10291000204610BD10B54FF42C7104461FF074FF13
:10292000204610BD08B5FEF7BFFD08BD00F5A47335
:10293000994270B504460D4602D103681B6B984757
:1029400004F580739D4203D1236820465B6B984752
:1029500004F5C8739D4205D1236820469B6BBDE8F2
:102960007040184770BD0000036870B55E6B124B75
:102970001B6804468DB22BB9104B114A6C211148CB
:1029800020F07EFE1049828D0988914203D80F4BBA
:102990000B4A6D21F3E713F812200D4B1B6853F817
:1029A000220003681B6B9847291A3346204609B258
:1029B000BDE87040184700BFF0BD0120C24F0208BB
:1029C000045002083F500208F4BD0120865002085E
:1029D000F8BD012000224FF0FF31C0E900218260E4
:1029E000704770B5036804461B6B1546984723680B
:1029F000294620465B6BBDE8704018474FF4807154
:102A000081840D4901600D4981624FF6FF71818516
:102A10004FF47F01002241634FF0FF31C0E90122F2
:102A2000C0E90322C0E90522C0E90722C0E910126B
:102A300002630287C2637047485F0208605702085A
:102A4000F8B5194B018F1B888B4206462AD9174BC4
:102A50001B682BB9164B174A17486C2120F010FE43
:102A600013F81120154B1B6853F82250144B1868AB
:102A700000F04AFC2B6807469B6B284698472B685A
:102A800004469B6C3946284698472B6814FB00F493
:102A90005B6A394628469847A4B223181BB2A6F8A9
:102AA0004630F8BD0023FAE7F4BD0120F0BD012057
:102AB000C24F0208045002083F500208F8BD01202E
:102AC000FCBD01202DE9F04F04468BB00EF03CFC1C
:102AD0008D4B23608D4B0025C4E910354FF4807376
:102AE00004F16C0BA4F86430FF2384F8663004F121
:102AF000B408C4E91255C4E91455C4E91655E56390
:102B00002566A5665846FFF779FF4046FFF776FF32
:102B100004F5807A7E4BC4F8B430C4F8FC505046BB
:102B200004F5A47909F088FC484609F085FC04F511
:102B3000C8731846019309F07FFC764BC4E9A834AA
:102B4000754B04F140062A46C4E9AA3530462946A9
:102B5000FFF747FF3046F021FEF7F0FB30464FF419
:102B6000A071FEF7EDFB271D4FF07F43A3663146B2
:102B7000384605F0E3FE6C22C0215846FFF731FFCE
:102B800002AE664BC4F89C3030465946A4F8A050BB
:102B900008F044FE96E8070004F1A80C8CE8070052
:102BA0005F4B08930B2208A95846ADF8242009F082
:102BB000DDF85946384605F0C1FE8722C721404658
:102BC000FFF70FFF554BC4F8E430D4F8B430A4F845
:102BD000E8503046D3F884304146984796E80700DD
:102BE00004F1F00383E807004E4B1B6804F5EC7614
:102BF0002BB94D4B4D4A60214D4820F041FD4D4BC6
:102C00001B88082B03D84C4B484A6121F4E74B4BF7
:102C10000821186800F078FB494A034664213046D1
:102C200010F09AFCC4F8FC60404609F07FF83C4B79
:102C3000089308A909234046ADF8243009F096F816
:102C40004146384605F07AFE294650464FF48772D1
:102C5000FFF7C7FE4FF0010B08AA07A95046ADF8D1
:102C60001C50ADF820B009F0DEF80723A4F8383185
:102C70004FF0FF3604F528785046FFF7E1FE514645
:102C80003846C4E94F66C4F8288105F057FE294646
:102C90004846D422FFF7A5FE08AA07A94846ADF882
:102CA0001C50ADF820B009F0BEF80623A4F880311E
:102CB0004846FFF7C5FE49463846C4E96166C4F890
:102CC000708105F03BFE019829469A22FFF789FEA4
:102CD00008AA07A90198ADF81C50ADF820B009F07A
:102CE000A2F805230198A4F8C831FFF7A9FE3846D9
:102CF000C4E973660199C4F8B88105F01FFE204647
:102D00000BB0BDE8F08F00BFA8580208D85F0208DA
:102D100000580208905802082D290008414CE0FF95
:102D200060570208F0BD0120C24F0208C4500208DB
:102D30003F500208F4BD012086500208FCBD01206E
:102D40000F5102080022C0E90122C0E90322C0E9B4
:102D50000522C0E907224FF480728284014A026092
:102D6000704700BFEC5802087047704710B5F82153
:102D700004461FF049FD204610BD00002DE9F04734
:102D8000044686B0264600250EF0DEFA604BE56369
:102D900046F8403B26222946304620F078FE304651
:102DA000FFF7D0FF5B4B236404F16C07FF2384F82B
:102DB000663026222946A566384620F068FE384649
:102DC000FFF7C0FF4FF47F03C4F8A030524BE36617
:102DD0004FF6FF794FF0FF3304F1B808DFF864A134
:102DE000A4F898902622C4E92B352946C4F894A06B
:102DF000C4F89C50A4F8A450C4F8A850C4F8B45027
:102E00004046ADF8109020F042FE4046FFF79AFF92
:102E1000424BC4F8B830BDF81030A4F8DE3084F866
:102E2000E09004A9404609F0C5F92A4630462946F3
:102E3000FFF7D7FD3046F021FEF780FA30464FF419
:102E4000A071FEF77DFA04F104094FF07F43A366F9
:102E50003146484605F072FDA92246213846FFF763
:102E6000C0FD2F4BC4F89C30E36EA4F8A0506E4612
:102E70003046D3F884303946984796E8070004F185
:102E8000A80383E80700274B1B6804F1E4062BB96D
:102E9000254B264A6021264820F0F2FB254B1B8853
:102EA0001BB9254B214A6121F5E7244B29461868B7
:102EB00000F02AFA224A03460A21304610F04CFB61
:102EC0003846C4F8B46008F031FF0A2304A9384634
:102ED000ADF81430CDF810A008F048FF3946484648
:102EE00005F02CFD6FF02A0240463C21FFF779FDEA
:102EF000042304A94046ADF8103009F05BF94846B8
:102F0000414605F01BFD204606B0BDE8F08700BF36
:102F100054590208D85F020800580208A860020845
:102F2000414CE0FFF0BD0120C24F0208C45002082E
:102F30003F500208F4BD012086500208FCBD01206C
:102F40000F51020860570208406A7047806A704754
:102F500070478A880B8810B5D20A4C88C1699BB229
:102F600051F8220043EA0443184410BD10B504464A
:102F7000BAB1107B68B1537BD27A1B0203F4E063D1
:102F80001A43236A03EB82031A888A4202D193F917
:102F9000020010BD05D8013880B204330028F3D1F7
:102FA000F7E70020F5E710B52C2104461FF02CFCB4
:102FB000204610BD30B58BB00446BDF86050089572
:102FC000BDF85C5007959DF8505006959DF84C5003
:102FD00005959DF8485004959DF8445003959DF83B
:102FE000405002959DF83C500195BDF83850009531
:102FF0000DF0B0FF064B2360159BE361169B236227
:10300000199B63621A9BA36220460BB030BD00BFC0
:10301000885902087047000030B5174D2C6814F02D
:1030200001048FB0BFF35B8F22D128461FF0EEFB67
:10303000F0B13F230993114B0893114B07930123E0
:10304000CDE9053304930423CDE902430A230D4956
:1030500000935F220C23CDE90B440B480A940194A2
:10306000FFF7A8FF094820F029FB28461FF0DAFBEC
:1030700005480FB030BD00BF84AF0020843606087D
:10308000383D0608E807060888AF0020153000081C
:103090007047000030B5174D2C6814F001048FB054
:1030A000BFF35B8F22D128461FF0B0FBF0B13F2366
:1030B0000993114B0893114B07930123CDE9053375
:1030C00004930423CDE9024314230D4900935F22A6
:1030D0001823CDE90B440B480A940194FFF76AFFCB
:1030E000094820F0EBFA28461FF09CFB05480FB07A
:1030F00030BD00BFB4AF0020B83606083C3D06081E
:103100001C0D0608B8AF0020913000087047000081
:1031100030B5194D2C6814F001048FB0BFF35B8FEC
:1031200026D128461FF072FB10B33F230993134B9F
:103130000893134B07930D221423CDE90532012187
:103140000423CDE9033103202823CDE900300D49C4
:103150000D480A94312340F29622CDE90B440294A3
:10316000FFF728FF094820F0A9FA28461FF05AFB6C
:1031700005480FB030BD00BFE4AF00205C38060842
:10318000403D060850120608E8AF00200D31000847
:1031900000207047002070470EB403B503AB002138
:1031A00053F8042B01930DF077F902B05DF804EBAE
:1031B00003B070470CB407B504AB53F8042B01936C
:1031C0000DF06AF903B05DF804EB02B0704700003F
:1031D00010B504460EF0F0FAE38E04EB4303588476
:1031E000636C5BB3238F2BB9174B184AC521184862
:1031F00020F046FA10B320460FF005FC238F012B78
:1032000003D8144B144ACB21F1E7E28E531C9BB236
:10321000092B194688BFA3F10A0104EB410140F6CE
:103220003F10498C814209D10A2B04EB420228BF8E
:10323000002304EB4303508C588451842046BDE89E
:1032400010400FF0E3BA00BF125102081B510208F0
:10325000C6510208105202081E52020810B5044658
:103260000FF09BFA2046BDE810400EF0A0BA10B552
:1032700086B002AC84E806001A460AAB05930193B7
:10328000099B00932146089B0BF004FC06B010BD7F
:1032900038B518BB124B13481C681349B4B12268E7
:1032A00022440260626822440A60A26814440F4B00
:1032B00000221A8000F038F8054600F033F80C4B75
:1032C0001C600C4B1D600C4B188007E00B4B03601F
:1032D0000B4B0B600B4B1C68002CE8D138BD00BFBA
:1032E00020B0002018B0002014B000201CB0002036
:1032F000F0BD0120F8BD0120F4BD01207C3D060891
:10330000483D06081C3E0608044B1B6853F8210084
:10331000034B1B6803EB4000704700BF14B0002054
:1033200018B000200D2070470048704724B00020DE
:1033300010B5FFF7AFFE044C2060FFF7E9FE6060B8
:10334000FFF76AFEA06010BD24B0002010B5002475
:1033500004600C6014601C6010BD704710B54FF421
:10336000AE7104461FF050FA204610BD10B5044659
:10337000D0F8580100F09BFC2046BDE810400CF04E
:1033800085B8000010B50446FFF7ACF8014B236088
:10339000204610BDF0590208704704387047704746
:1033A00010B5102104461FF02FFA204610BDA0F1E1
:1033B0000400F5E700228260024A0260183242608F
:1033C000C1607047445A02087047000038B5094B85
:1033D0000360044648F60855B5F5207F05D06359CB
:1033E00060191B689847343DF6E72046FFF765FAF9
:1033F000204638BDA45A020810B50446FFF7E6FF80
:10340000204649F644011FF0FFF9204610BD2DE982
:10341000F0411D460368BDF918701B6B0446164643
:1034200098472368314620465B6B984723682946B6
:1034300020469B6B9847236839462046DB6BBDE8E6
:10344000F041184708B500F007FF4FF0E0239B69F3
:10345000584008BD08B50BF097FFBDE80840FFF7DE
:1034600085B800F50D4300F50D402DE9F0413833E6
:1034700002F1040801F1030E8C304FF0580C4C1E81
:103480000CFB02061D4655F8047F37B1092C0ED8F7
:10349000132A0CDC56F824704FB901347445F2D16C
:1034A0000132424503F11003E9D1002000E0012080
:1034B000BDE8F081F0B5A1B0064600214022684683
:1034C00020F0E5FA06F50D4306F50D40383303A963
:1034D00078301C46002254F8045F41F82250043230
:1034E000102AF8D110338342A1F10401F1D1402216
:1034F00006F50D440DEB020000213C3410AD06F53D
:103500000D4720F0C4FA7C372A462346196811601B
:103510005968516099689160103353F8041CD16068
:10352000BB4202F11002F1D16B46224619681160CC
:103530005968516099689160D968D1601032BA4277
:1035400003F11003F2D106F500433046D3F8802D85
:10355000D3F87C1DFFF785FF60B12B6823606B6893
:103560006360AB68A360EB68E3601034BC4205F1B4
:103570001005F2D121B0F0BD2DE9F84F00F510464D
:1035800000F500450423C5F87C3D0027D6F84038F7
:10359000C5F8807DC6F83C380446FFF753FF072383
:1035A000B0FBF3F3C3EBC303C21AD5F87C3DD6F8E6
:1035B0003C08DFF8B0E0C6F84028092B04F50D4CB4
:1035C00004F50D43C6F830080EEB8011C8BFC5F8EE
:1035D0007C7D3C330CF17C0C0F681F604F685F6092
:1035E0008F689F60CF68DF601033634501F1100181
:1035F000F2D10130D6F83898D6F834A8C5F8840D41
:103600000EEB8213002601324FF0160842F2623BA5
:1036100006EB090C9E46002008FB0CFC5EF8047BC0
:1036200000EB0A016144002F594400F1010018BF6A
:103630001746042844F82170F0D10136042E03F116
:103640001003E5D1D5F8802DD5F87C1D2046FFF775
:1036500008FF20B12046BDE8F84FFFF7FBBEBDE8EC
:10366000F88F00BFE05A020810B500F50044D4F806
:103670007C1DD4F8802D0131FFF7F3FE08B9C4F8A2
:103680007C1D10BDFFF7F0BF10B500F50044D4F865
:103690007C1DD4F8802D0139FFF7E3FE08B9C4F88A
:1036A0007C1D10BDFFF7F0BF38B500F50044D4F81D
:1036B000805DD4F87C1D01352A46FFF7D2FE08B99B
:1036C000C4F8805D38BDFFF7EFBF2DE9F04100F58C
:1036D0000D470546132600244FF058088C3708FB89
:1036E00006F303F50D4288322A44012152F8040FF3
:1036F000C8B101310B29F9D12B4448F6305009E00B
:1037000019180122013251F804CFC1F858C00B2A10
:10371000F8D1583BAB42F3D128220021384620F0A3
:10372000B6F90134DBE7013ED9D2042C08BF0824E6
:103730002046BDE8F08100002DE9F04700F5004685
:103740000546D6F8804DD6F87C1D671C3A46FFF733
:1037500088FE78B3234605F50D4204F1040805F50B
:103760000D44383201F1040E88344FF058090846F0
:1037700094465CF8047F4FB10B2807D8142B9EBFEA
:1037800009FB034AD6F8847D4AF820700130704561
:10379000EFD10133434502F11002E8D12846FFF78B
:1037A00094FF064A136803442846BDE8F0471360B7
:1037B000FFF7E2BEC6F8807DBDE8F0874CAD002083
:1037C000634B644A1B682DE9F047044600F5EC752D
:1037D000642128460FF0C0FEC4F8FC5004F1B40583
:1037E000284608F0A3FA28460CF05DFF04F50D46C4
:1037F000DFF87CA1883600273D19B1464FF001085B
:1038000059F8043F002B00F09B80013B062B9DBF25
:10381000514A524952F82320514A94BF51F823305B
:103820005346C5E9C423D5F8E83205F53A705B691B
:1038300008F101089847B8F10B0F05F13405DFD105
:1038400007F58F6745F660139F4206F15806D3D1FE
:1038500004F50D46DFF818A1B4360027E519B14686
:103860004FF00C0859F8043F002B6DD0013B062B9C
:103870009DBF3C4A3C4952F82320394A94BF51F835
:1038800023305346C5F85035D5F82435C5F84C25B6
:1038900005F224505B6908F101089847B8F1110F4F
:1038A00005F13405DED107F58F67B7F58F5F06F1B7
:1038B0005806D3D104F50D453835002704F50048E6
:1038C0004FF0340AA946002659F8043F73B3D8F8DC
:1038D0007C3DF2180B2A29D8D8F8800D38441428DA
:1038E00024D8D8F8843D013B062B9FBF1F49DFF841
:1038F00084C051F823105CF823C088BFDFF878C07B
:103900000AFB02F34FF48F6202FB00F003EB0002AC
:10391000224400F52D701844D2F8B43288BF4FF01D
:10392000FF31C2E9B71C5B69204498470136042E79
:10393000CAD10137042F05F11005C3D1BDE8F087C6
:103940004FF07F4213466CE74FF07F42134699E7F2
:103950004CAD0020F0520208805A0208645A020856
:103960006E6E6EFF805A0208645A0208805A02087E
:10397000616161FF645A0208C8C8C8FF1F4B37B5B0
:10398000D0F8B02219681E4B013213291B68C0F809
:10399000B022044623DCC3F106039B00B2FBF3F123
:1039A00003FB112313B92046FFF7C6FE154D286807
:1039B00003F06AF870B14FF0FF33286800220DF170
:1039C000070103F031F89DF80730542B02D120464F
:1039D000FFF770FD2046FFF7F3FE03B030BD272947
:1039E00002DCC3F10503D8E7C3F104039B00B2FB7B
:1039F000F3F103FB1122002AD8D1D4E74CAD00200B
:103A00001400002054AD00202DE9F04F044685B08D
:103A1000FFF758F80025724B724F236004F52D789C
:103A200004F50D42C4F8B0523C3243460126FF2053
:103A300003F58F619D80DD801D815D819D81DD812C
:103A40001D825D82DD611D845D8483F8245083F8CE
:103A5000256083F826009D621F60DD621D86C3E934
:103A6000055534338B42E5D19342E1D104F5004052
:103A70000423C0F87C3D04F5104BC0F8805D40F68F
:103A8000A822002100F6885020F001F80D23CBF881
:103A90003068CBF83438CBF838584FF00009C9EB10
:103AA000091304F5B8460FFA83FA14364546002781
:103AB00040F60103FB40C7EB071113F0010F4FF075
:103AC0000F0309B200930AD028465246FFF79FFC25
:103AD000454B4648C5E90A0303232B860DE0B9F19F
:103AE000140F68D14FF496723046FFF790FC3E4BAE
:103AF0003E49C6E90A1303233386231D2946184687
:103B00000137039304F01AFF0C2F05F1340506F179
:103B10003406CDD109F10109B9F1150F08F58F6807
:103B2000BDD104F224594FF00008C8EB08131BB2B2
:103B300004F5B855029304354E46B4274FF00F0AEA
:103B4000B8F1040FCDF800A04FF00F0339B23CD00C
:103B5000029A3046FFF75BFC4FF07F43C6E90A3319
:103B6000012333860F3731460398BFB204F0E6FED7
:103B7000FF2F06F1340605F13405E1D108F1010803
:103B8000B8F1050F09F58F69CFD12046FFF75AFC30
:103B90000723B0FBF3F3C3EBC303C01A0130CBF828
:103BA00040082046FFF7E8FC2046FFF709FE2046C4
:103BB00005B0BDE8F08F52462846FFF728FC4FF0CD
:103BC0007F43C5E90A33012387E73C222846FFF7F4
:103BD0001EFC054B054AC5E90A2303232B86C1E7D2
:103BE000A45A020840600208616161FF6E6E6EFFB8
:103BF00010B50446FEF762FE2046BDE81040FFF710
:103C0000BBBC704704387047704710B5102104469C
:103C10001EF0FAFD204610BDA0F10400F5E70000FB
:103C200000228260024A026018324260C16070471E
:103C3000A85C02087047000010B5034B03600446FF
:103C4000FFF792F8204610BDD05C020810B504467C
:103C5000FFF7F2FF2046F8211EF0D6FD204610BDEA
:103C600038B504462546FFF789F80B4B45F8E43B89
:103C70000A4B0B4A1B680A2128460FF06DFCC4F85A
:103C8000B45004F16C05284608F050F828460CF0B2
:103C90000AFD204638BD00BFD05C02084CAD0020B4
:103CA000F0520208FFF761B80022026070477047C7
:103CB000F02070474FF4A07070472920FDF7F4BF43
:103CC0002820FDF7F1BF08B5FDF7C2FFCA20FDF7B8
:103CD000EBFFC320FDF7CCFF0820FDF7C9FF502004
:103CE000FDF7C6FFCF20FDF7DFFF0020FDF7C0FF87
:103CF000C120FDF7BDFF3020FDF7BAFFED20FDF735
:103D0000D3FF6420FDF7B4FF0320FDF7B1FF1220BD
:103D1000FDF7AEFF8120FDF7ABFFE820FDF7C4FF04
:103D20008520FDF7A5FF0020FDF7A2FF7820FDF715
:103D30009FFFCB20FDF7B8FF3920FDF799FF2C201E
:103D4000FDF796FF0020FDF793FF3420FDF790FF6D
:103D50000220FDF78DFFF720FDF7A6FF2020FDF7DD
:103D600087FFEA20FDF7A0FF0020FDF781FF00207C
:103D7000FDF77EFFB120FDF797FF0020FDF778FFEC
:103D80001B20FDF775FFB620FDF78EFF0A20FDF71B
:103D90006FFFA220FDF76CFFC020FDF785FF10200C
:103DA000FDF766FFC120FDF77FFF1020FDF760FFE4
:103DB000C520FDF779FF4520FDF75AFF1520FDF7D7
:103DC00057FFC720FDF770FF9020FDF751FF362009
:103DD000FDF76AFFC820FDF74BFFF220FDF764FFF7
:103DE0000020FDF745FFB020FDF75EFFC220FDF784
:103DF0003FFFB620FDF758FF0A20FDF739FFA72047
:103E0000FDF736FF2720FDF733FF0420FDF730FFD5
:103E10002A20FDF749FF0020FDF72AFF0020FDF7CB
:103E200027FF0020FDF724FFEF20FDF721FF2B20C7
:103E3000FDF73AFF0020FDF71BFF0020FDF718FFFC
:103E40000120FDF715FF3F20FDF712FFF620FDF7DB
:103E50002BFF0120FDF70CFF0020FDF709FF0620D6
:103E6000FDF706FF2C20FDF71FFFC820FDF76AFFB6
:103E70002620FDF719FF0120FDF7FAFEE020FDF7EF
:103E800013FF0F20FDF7F4FE2920FDF7F1FE24209B
:103E9000FDF7EEFE0C20FDF7EBFE0E20FDF7E8FE31
:103EA0000920FDF7E5FE4E20FDF7E2FE7820FDF744
:103EB000DFFE3C20FDF7DCFE0920FDF7D9FE1320D4
:103EC000FDF7D6FE0520FDF7D3FE1720FDF7D0FE47
:103ED0001120FDF7CDFE0020FDF7CAFEE120FDF721
:103EE000E3FE0020FDF7C4FE1620FDF7C1FE1B20F7
:103EF000FDF7BEFE0420FDF7BBFE1120FDF7B8FE66
:103F00000720FDF7B5FE3120FDF7B2FE3320FDF7A7
:103F1000AFFE4220FDF7ACFE0520FDF7A9FE0C2008
:103F2000FDF7A6FE0A20FDF7A3FE2820FDF7A0FE60
:103F30002F20FDF79DFE0F20FDF79AFE1120FDF7C3
:103F4000B3FEC820FDF7FEFE2920FDF7ADFEBDE85B
:103F500008402C20FDF7A8BE08B5FDF779FE032127
:103F6000D320FDF7BDFE80B208BD10B5C4B2022259
:103F700003212046FDF722FE0A20FDF767FE2046BA
:103F800000220321FDF71AFEBDE810400220FDF7D4
:103F90005DBE38B50446E4B2FDF70EFE00212046B2
:103FA000FDF724FE012105462046FDF71FFE40EAED
:103FB000052080B238BD10B5C4B240212046FDF7BF
:103FC00015FE030607D54C212046FDF70FFE0038ED
:103FD00018BF012010BD01224B212046FDF7EEFD48
:103FE000204600224B21FDF7E9FD0020F2E773B5E2
:103FF0000423C4B20E461546D7210DEB030220461A
:10400000FDF70EFE019B1BBA1A0DC3F30B23328082
:1040100020462B8001224B21FDF7D0FD00224B21B1
:104020002046FDF7CBFD02B070BD000010B50A4A76
:104030001378984204460DD0517888420AD00BB1CB
:1040400041B90123D454FDF7B7FD2046BDE8104027
:10405000FFF78BBF10BD00BF30B0002010B5C4B259
:1040600009212046FDF7C2FD40F00102D2B22046F0
:104070000921BDE81040FDF7A1BD10B5C4B209216A
:104080002046FDF7B3FD092100F0FE022046BDE801
:104090001040FDF793BD38B5C4B20D4620460A2145
:1040A000FDF7A4FD40EA0502D2B220460A21BDE890
:1040B0003840FDF783BD10B50446FDF77EFD204670
:1040C0001F21FFF7E8FF2046BDE81040FFF7C6BFFD
:1040D00038B5C4B20D4620460A21FDF787FD20EA17
:1040E0000502D2B220460A21BDE83840FDF766BD80
:1040F00010B50446FFF7C1FF20461F21BDE8104060
:10410000FFF7E6BF10B5C0B20C460B21FDF76EFD00
:10411000204010BD1F21FFF7F5BF0A46C0B20B219A
:10412000FDF74CBD1F21FFF7F8BF38B5C4B20D46EF
:1041300020461721FDF75AFD20EA0502D2B220469B
:104140001721BDE83840FDF739BD70B5C4B2064649
:1041500004212046FDF74AFD042100F0FB0205463C
:104160002046FDF72BFD3046F021FFF7DEFF05F07E
:10417000F80220460421FDF721FD49222021204696
:10418000FDF71CFD0220FDF761FD204601222121E3
:10419000FDF714FD20469A224121FDF70FFD204630
:1041A00001224A21FDF70AFD204601224B21FDF79D
:1041B00005FD204600224B21FDF700FD204601228F
:1041C0005621FDF7FBFC204601225821FDF7F6FCA5
:1041D000204601224021FDF7F1FC2046FF220B2161
:1041E000FDF7ECFCBDE870400220FDF72FBD00009C
:1041F000054BD3F8882042F47002C3F888204FF0B2
:1042000000629A60704700BF00ED00E008B50B4BFC
:104210001A6842F400721A601A6842F480621A60E6
:104220001A6842F480721A60032000F02FF8002010
:10423000FDF7CAFFFDF794FD002008BD003C0240D9
:10424000034A044B11681B780B441360704700BF8E
:1042500034B000207C000020014B1868704700BF7C
:1042600034B0002038B50446FFF7F6FF631C1CBFCE
:10427000054B1B78054618BFE418FFF7EDFF431BFD
:10428000A342FAD338BD00BF7C0000200749CA68AA
:1042900022F4E0620302120403F4E063120C1343FD
:1042A00043F0BF6343F40033CB60704700ED00E0A0
:1042B000164B30B5DC68C4F30224C4F10703251D96
:1042C000042B28BF0423062D4FF0FF358CBF033C81
:1042D000002405FA03F321EA0303A54022EA0502BC
:1042E000A340002843EA0203ACBF00F16040084A43
:1042F0004FEA0313B8BF00F00F00DBB2AABF00F50E
:104300006140135480F8003330BD00BF00ED00E081
:1043100014ED00E0002807DB044A4109012300F006
:104320001F00834042F82130704700BF00E100E0E9
:1043300010B5044650B1437903F0FF0213B902717E
:10434000FDF72EFD01236371002010BD0120FCE765
:1043500010B5044620B390F8393003F0FF021BB9C2
:1043600080F83820FDF734FD022384F839302368C3
:1043700061681A6822F440320A431A605A6BA168D5
:1043800022F007020A435A631A6CE1686FF30D02C8
:104390000A431A6400200123E06384F8393010BD19
:1043A0000120FCE770477047036870B55E681D68C0
:1043B000F207044614D5E90512D51A6822F4807272
:1043C0001A60C26B42F00102C26301229A600423A8
:1043D00080F83930002380F83830436903B19847BA
:1043E000B20616D5AB0414D523681A6822F400521D
:1043F0001A6020229A60E36B43F00203E363042314
:1044000084F83930002384F8383063690BB12046D2
:104410009847300716D5290514D523681A6822F461
:1044200000621A6008229A60E36B43F00403E363BE
:10443000042384F83930002384F8383063690BB1E1
:104440002046984772070BD56B0509D523681A6873
:1044500022F480621A6004229A602046FFF7A2FFCD
:10446000B00714D5A90512D523681A6822F4007282
:104470001A6002229A60E36BE363012384F8393007
:10448000002384F8383023690BB120469847F206A0
:1044900013D5EB0411D523681A6822F480521A60F0
:1044A00010229A60E36BE363012384F83930002320
:1044B00084F838302046FFF776FF70BDF0B590F8ED
:1044C0003820012A03464FF002002BD0012283F846
:1044D000382083F8390003EB0112D2E90740556A0E
:1044E000174F44EA0040093C012C9CBF05F07F4275
:1044F00010434FEA01161A6888BF40EA056091B977
:10450000516A394001435162012C9969916103D884
:10451000596A21F07F4191620122002083F83920FD
:1045200083F83800F0BDD16939400143D161991950
:10453000012C896911619CBF25F07F451562EBE76D
:10454000F0FFFC002DE9F74FDFF8BC916C4A002327
:104550000D6801249C4004EA0506AC4340F0B78096
:104560004D68032705F003044FEA430807FA08FCE7
:10457000671E012F6FEA0C0C34D8876807EA0C0E0F
:10458000CF6807FA08F747EA0E078760476827EA07
:10459000060EC5F300179F4047EA0E074760C7683D
:1045A00007EA0C0E8F6807FA08F747EA0E07022C95
:1045B000C76019D14FEAD30A00EB8A0A03F0070B50
:1045C000DAF820704FEA8B0B4FF00F0E0EFA0BFE4D
:1045D00027EA0E0E0F6907FA0BF747EA0E07CAF82B
:1045E000207001E0032CDAD1076804FA08F407EA26
:1045F0000C073C4315F4403F046068D0002401944C
:10460000D9F8444044F48044C9F84440D9F84440BF
:1046100023F0030707F1804704F4804407F59C3733
:10462000019403F0030C019CD7F808E04FEA8C0CCE
:104630000F2404FA0CF42EEA040E324CA0424DD0A2
:1046400004F58064A0424BD004F58064A04249D0B8
:1046500004F58064A04247D004F58064A04245D0B0
:1046600004F58064A04243D004F58064A04241D0A8
:1046700004F58064A0423FD004F58064A0423DD0A0
:1046800004F58064A04214BF0A24092404FA0CF43F
:1046900044EA0E04BC609468F74315F4801F0CBF15
:1046A0003C4034439460D46815F4001F0CBF3C4078
:1046B0003443D460546815F4003F0CBF3C4034438D
:1046C00054601468ED0354BF3C403443146001331C
:1046D000102B7FF43DAF03B0BDE8F08F0024D5E789
:1046E0000124D3E70224D1E70324CFE70424CDE754
:1046F0000524CBE70624C9E70724C7E70824C5E754
:10470000003C0140000002400038024003691942A9
:1047100014BF0120002070470AB18161704709046D
:10472000FBE7436901EA030221EA030141EA02418E
:104730008161704701684B6913F480634FF0000298
:1047400010D06FF480634B612023026380F83D300A
:1047500080F83E20036C80F83C2043F0040303649F
:1047600001207047184670472DE9F84606460F4667
:1047700091461D464FEA114A3368BAF1010F0CBF4A
:104780005C699C6927EA0404A4B2B4FA84F464095D
:10479000A14501D0002025E06A1CEED0FFF75CFDAA
:1047A000089BC01AA84201D8002DE5D13368BAF1A0
:1047B000010F0CBF5B699B6927EA03039BB2B3FA45
:1047C00083F35B099945D7D100232022336386F810
:1047D0003D2086F83E30326C86F83C3042F02002B4
:1047E00032640120BDE8F8862DE9F04104460F4609
:1047F000164698462568686927EA000080B2C0B16D
:104800006B695A0517D52B6843F400732B606FF45E
:1048100080636B6120220023236384F83D2084F8A9
:104820003E30236C43F004032364002384F83C30BF
:104830000120BDE8F081731CDDD0FFF70DFDA0EB7A
:104840000800B04201D8002ED4D123685A6927EA63
:10485000020292B2002ACDD000232022236384F8E2
:104860003D2084F83E30236C1343DDE770B50446E9
:104870000D46164623685B691B0601D500201EE025
:104880002046FFF757FFC8B96A1CF3D0FFF7E4FCD6
:10489000801BA84201D8002DECD123685B6913F07E
:1048A0008003E7D12022236384F83D2084F83E3042
:1048B000226C84F83C3042F020022264012070BD5A
:1048C0002DE9F0431546026885B0DDE90C7899467C
:1048D000136843F4807313600E463B46CDF80080A6
:1048E00000224FF001110446FFF73EFF236838B164
:1048F0001B68DB0502D54FF400732364032620E018
:1049000006F0FE061E611A4943463A462046FFF766
:104910006BFFA8B9236803905A6903929B690393BC
:10492000424639462046039BFFF7A0FF064660B18A
:10493000236C042B01BF2268136843F400731360D7
:104940000126304605B0BDE8F083B9F1010F2368B8
:1049500002D1EDB21D61F4E72A0A1A6139464246D6
:104960002046FFF783FF0028E2D12368F1E700BF6C
:10497000020001002DE9FF479A46036815461A68B0
:1049800042F480621A601A68DDE90C7842F48072A1
:104990001A600E463B46CDF8008000224FF0011110
:1049A0000446FFF7E1FE236838B11B68DB0544BF0E
:1049B0004FF400732364032021E05FFA86F906F0C8
:1049C000FE061E612B4943463A462046FFF70CFF80
:1049D000A0B9236803905A6903929B6903934246E6
:1049E00039462046039BFFF741FF58B1236C042B47
:1049F00001BF2268136843F400731360012004B000
:104A0000BDE8F087BAF1010F23681AD1EDB2424632
:104A10001D6139462046FFF729FF02460028E5D1EF
:104A200021680B6843F480730B602046CDF800804A
:104A30003B464FF00111FFF797FE226860B1136803
:104A4000B4E72A0A1A61394642462046FFF70EFFAC
:104A50000028CBD12368D9E749F001031361054948
:104A600043463A462046FFF7BFFE003818BF0120F4
:104A7000C5E700BF0200010070B504460D461646AA
:104A800023685B695B0701D500201EE02046FFF725
:104A900051FEC8B96A1CF3D0FFF7DEFB801BA842A9
:104AA00001D8002DECD123685B6913F00403E7D132
:104AB0002022236384F83D2084F83E30226C84F861
:104AC0003C3042F020022264012070BD70B50446E3
:104AD0000D46164621684B6913F0400301D00020B3
:104AE00011E04A69D2060FD56FF010024A61202208
:104AF000236384F83D2084F83E30236C2364002334
:104B000084F83C30012070BDFFF7A6FB801BA84253
:104B100001D8002DDED123685B6913F04003D9D1A1
:104B20002022236384F83D2084F83E30236C134315
:104B3000E4E7000070B5044608B9012070BD90F8A4
:104B40003D3003F0FF021BB980F83C20FDF762F90D
:104B5000242384F83D3023681A6822F001021A6089
:104B60001A6842F400421A601A6822F400421A607D
:104B700000F0A8FE3F4B65689D4294BF3E4B3F4B03
:104B800098428CBF00230123002BD6D12268394ED6
:104B900051683B4BB0FBF3F321F03F011943B542A1
:104BA000516088BF4FF49676116A88BF734321F035
:104BB0003F0184BF4FF47A76B3FBF6F301330B4326
:104BC0001362D169431E2B4821F44F41854221F0E5
:104BD000FF0132D86D0040F6FC70B3FBF5F30133F2
:104BE000034242D0C3F30B031943D161D4E9073028
:104BF0001168034321F0C0010B4313609168D4E9AD
:104C0000030321F40341034321F0FF010B439360AD
:104C1000D4E90530D168034321F0FF010B43D36091
:104C2000136843F00103136000202023206484F8FC
:104C30003D30206384F83E0080E7A06850B905EB62
:104C40004505B3FBF5F30133C3F30B037BB143F429
:104C50000043C9E719206843B3FBF0F30133C3F302
:104C60000B0323B143F44043BEE70423BCE7012315
:104C7000BAE700BFA08601007F841E00FF083D0048
:104C800040420F002DE9F743044699460C9E0F461B
:104C90009046FFF7E1FA94F83D30202B054603D00B
:104CA000022003B0BDE8F08300903C4919230122A3
:104CB0002046FFF759FD0028F2D194F83C30012B33
:104CC000EED02068012384F83C300368D9075EBF2A
:104CD000036843F001030360036823F40063036087
:104CE000212384F83D30402384F83E3000232364A0
:104CF0000A9B6362BDF82C306385638D2385284B46
:104D0000E3624246CDE900654B4639462046FFF74F
:104D1000D7FD00282AD00120C3E7FFF7A7FD40B147
:104D2000236C042B01BF2268136843F400731360E3
:104D3000F1E7636A27681A4612F8011B396162625B
:104D4000628D218D013A92B262857A69481E80B2E5
:104D5000520720850AD548B15A783A610233636216
:104D6000638D013B02399BB221856385238D2A46E1
:104D700031462046002BD0D1FFF77EFE0028CFD150
:104D80002268136843F400731360202384F83D30D5
:104D900084F83C0084F83E0083E700BF0200100066
:104DA0000000FFFF2DE9F043044687B09946109FAD
:104DB0000D469046FFF750FA94F83D30202B0646FA
:104DC00004D00225284607B0BDE8F08300907A4958
:104DD000192301222046FFF7C7FC0028F1D194F8DF
:104DE0003C30012BEDD02068012384F83C3003686F
:104DF000DB075EBF036843F001030360036823F42D
:104E000000630360222384F83D30402384F83E3061
:104E1000002323640E9B6362BDF83C306385638D81
:104E20002385664BE3622946CDE900764B46424630
:104E30002046FFF79FFD054608B10125C2E7228DF8
:104E40002368B2B902905A6902929A690292029A50
:104E50001A6842F400721A60DFF86481238D002B17
:104E60002CD1202284F83D2084F83C3084F83E3058
:104E7000A8E7012A0AD11A6822F480621A60039016
:104E80005A6903929A690392039AE1E7022A0ED1C2
:104E90001A6822F480621A601A6842F400621A608A
:104EA00004905A6904929B690493049BD4E705908B
:104EB0005A6905929B690593059BCDE7032B56D84C
:104EC000012B15D1324639462046FFF7FFFD002859
:104ED000B3D123681A69636A1A70636A0133636223
:104EE000238D013B2385638D013B9BB26385B5E731
:104EF000022B00963B464FF000024146204619D156
:104F0000FFF732FC002898D123681A6842F4007237
:104F10001A601A69636A1A70626A531C6362238D8D
:104F2000013B2385638D013B9BB2638523681B692D
:104F30005370D2E7FFF718FC024600287FF47DAFDC
:104F40002368196821F4806119601969636A19700E
:104F5000636A01336362238D013B2385638D013BCB
:104F60009BB26385414600963B462046C8E73246E1
:104F700039462046FFF7AAFD00287FF45EAF23687C
:104F80001A69636A1A70628D616A013A92B24B1CA7
:104F9000628522686362238D5069013B9BB24007A2
:104FA00023857FF55BAF032B02BF136823F4806377
:104FB000136013694B7090E7020010000000FFFFC0
:104FC0000400010010B590F83D30202BDCB216D162
:104FD000242380F83D3003681A6822F001021A6029
:104FE0005A6A22F010025A625A6A114359621A68C8
:104FF00042F001021A6080F83D40002010BD0220FE
:10500000FCE730B590F83D30202BDCB216D10268B9
:10501000242380F83D30136823F001031360556AA0
:105020004FF6F0732B400B439BB25362136843F06F
:105030000103136080F83D40002030BD0220FCE7F2
:105040000068D1F800C0D201843283182DE9F04302
:10505000C6685D684C68D1F8189005F470455D60CD
:10506000C5680CF10107C5F30B45C6F30B46264492
:105070003D4445EA06455D60C668CD68C6F30A064C
:105080002E449D6805F470459D60C7688D68C7F320
:105090000A0701353D4445EA06459D601D690E69D4
:1050A00025F007051D614FF0000E1E6191F832706A
:1050B0009D6991F83180C3F818E091F8305045EAC5
:1050C000096545EA082545EA07459D615D6925F0C2
:1050D000FF055D614D695D61DD6925F4E06525F0E1
:1050E0000705DD61D1E907573D43DD619D6A4D6AE2
:1050F000C3F828E0072E9D629CBF0E4DAE5DDD6AB1
:1051000005F0E025DD6288BF01268D6AC96AA4EB3F
:105110000C0474437543033444EA0544DC621C6B9D
:105120006FF30A041C631963835843F0010383502F
:10513000BDE8F083145D020838B50446002863D04A
:1051400090F8A13003F0FF021BB980F8A020FCF713
:10515000BDFE022384F8A13023689A6922F07042D0
:105160009A61D4E901200243E06899690243206909
:1051700002430A439A619A68244960690A409A6026
:105180009A6842EA0042A06902439A60DA68E069DC
:105190000A40DA60DA6842EA0042206A0243DA60D2
:1051A0001A69606A0A401A611A6942EA0042A06AF2
:1051B00002431A615A690A405A615A69E16A42EA2D
:1051C0000142216B0A435A61DA6A94F8350094F877
:1051D000361002F07F42DA62DD6A94F834202A4306
:1051E00042EA002242EA0142DA625A6B42F00602C7
:1051F0005A639A6942F001029A6100200123C4F8BF
:10520000A40084F8A13038BD0120FCE700F800F0CC
:1052100070477047036870B59E6B5D6B72070446FC
:1052200014D5690712D55A6B22F004025A6304227E
:10523000DA63D0F8A43043F00103C0F8A4300023AF
:1052400080F8A12080F8A030FFF7E2FFB20716D562
:10525000AB0714D523685A6B22F002025A6302226C
:10526000DA63D4F8A4301343C4F8A430042384F8D8
:10527000A130002384F8A0302046FFF7C9FFF007D3
:1052800010D5E9070ED523685A6B22F001025A6344
:105290000122DA63002384F8A12084F8A03020469C
:1052A000FCF7BEF9320711D52B070FD523685A6BCF
:1052B00022F008025A630822DA63012384F8A1303D
:1052C000002384F8A0302046FFF7A3FF70BD2DE92E
:1052D000F04190F8A030012B06460F4694464FF05F
:1052E00002001FD04FF0010886F8A08086F8A100C8
:1052F00034240D4604FB02640FCD38340FC40FCDA7
:105300000FC40FCD0FC42B68236030466246394668
:10531000FFF796FE33680020C3F8248086F8A1804A
:1053200086F8A000BDE8F08190F8A020012A03468D
:105330004FF0020012D01A6883F8A100506B20F0E1
:105340000100506306480164516B41F00101516353
:105350000020012283F8A12083F8A000704700BF3D
:105360000068014037B500230193184B184D1A6CA3
:1053700042F080521A641B6C03F080530193019B2E
:10538000144B01221A64FEF767FF04466B68DA03C8
:105390000BD5104B0E4D01225A64FEF75DFF0446FB
:1053A0006B689B030AD5002006E0FEF755FF001B43
:1053B000B0F57A7FEAD9032003B030BDFEF74CFF89
:1053C000001BB0F57A7FEBD9F5E700BF003802404B
:1053D0000070004000000E422DE9F341044640B346
:1053E0000368DE0710D423689D075BD42368190780
:1053F00000F19D8023685A0700F1BD80A369002B4E
:1054000040F0248100202CE08D4B9A6802F00C02C1
:10541000042A07D09A6802F00C02082A0BD15B68B4
:10542000590208D5864B1B689A03DCD56368002BAC
:10543000D9D1012015E06368814DB3F5803F13D1C8
:105440002B6843F480332B60FEF706FF7C4E054645
:1054500033689B03C7D4FEF7FFFE401B6428F7D9CF
:10546000032002B0BDE8F081B3F5A02F04D12B6872
:1054700043F480232B60E3E72A6822F480322A6019
:105480002A6822F480222A60002BDDD1FEF7E4FE98
:1054900006462B689F03A6D5FEF7DEFE801B642818
:1054A000F7D9DDE7664B9A6812F00C0F07D09A68BF
:1054B00002F00C02082A11D15B685D020ED4604A2A
:1054C0001368990702D5E368012BB2D113682169EB
:1054D00023F0F80343EAC103136087E7E268594BFE
:1054E000B2B101221A60FEF7B7FE554D06462B6891
:1054F0009B0707D52B68226923F0F80343EAC20310
:105500002B6073E7FEF7A8FE801B0228EFD9A7E700
:105510001A60FEF7A1FE4A4E054633689F077FF5E5
:1055200065AFFEF799FE401B0228F6D998E762693D
:10553000444B82B10122C3F8802EFEF78DFE404E0F
:105540000546736F9B073FF555AFFEF785FE401B81
:105550000228F6D984E7C3F8802EFEF77DFE384E88
:105560000546736F9F077FF545AFFEF775FE401B3D
:105570000228F6D974E7324B1A6C12F0805228D107
:1055800001921A6C42F080521A641B6C03F0805333
:105590000193019B01272C4D2B68D8051BD5A368CF
:1055A000274D012B27D12B6F43F001032B67FEF70B
:1055B00053FE234E054641F28838336F9A0739D59A
:1055C000002F3FF41BAF1E4A136C23F0805313646B
:1055D00014E70027DFE72B6843F480732B60FEF7A6
:1055E0003BFE06462B68D905D9D4FEF735FE801B55
:1055F0000228F7D934E7052B04D12B6F43F00403BD
:105600002B67D0E72A6F22F001022A672A6F22F067
:1056100004022A67002BCAD1FEF71EFE41F2883829
:1056200006462B6F9B07CBD5FEF716FE801B404529
:10563000F7D915E7FEF710FE401B4045BDD90FE72F
:10564000003802400000474200700040374DAA6811
:1056500002F00C02082A3ED0022B354B4FF000021C
:105660001A662BD1FEF7F8FD06462B6899011FD468
:10567000D4E907321343626A43EA8213E26A43EAD7
:105680000263A26A5208013A43EA02436B60284B64
:10569000264D01221A66FEF7DFFD04462B689A01AB
:1056A0003FF5B0AEFEF7D8FD001B0228F6D9D7E6CD
:1056B000FEF7D2FD801B0228D7D9D1E6FEF7CCFD3C
:1056C00004462B689B017FF59DAEFEF7C5FD001BD0
:1056D0000228F6D9C4E6012B3FF4ABAE6B68E26951
:1056E00003F4800191427FF4A4AE216A03F03F02EB
:1056F0008A427FF49EAE616A47F6C0721A40B2EBEE
:10570000811F7FF496AEA26A520803F44031013A39
:10571000B1EB024F7FF48DAEE26A03F07063B3EB3E
:10572000026F14BF012000209BE600BF003802403A
:1057300000004742134908B58B6803F00C03042BA3
:105740001CD0082B1CD14A684B68496813F48003AD
:1057500014BF0D480D48C1F3881118BF002302F093
:105760003F02A1FB0001FAF7E3FD064B5B68C3F3C0
:10577000014301335B00B0FBF3F008BD0248FCE7D6
:105780000248FAE70038024000127A000024F400D0
:105790002DE9F0410D46044610B90120BDE8F08125
:1057A000434B1A6802F00F028A4228D321688F0700
:1057B0002DD4C80740D43E4B1A6802F00F02AA420B
:1057C00065D8226851076BD4130707D5394A216978
:1057D000936823F4604343EAC1039360FFF7AAFF91
:1057E000344B354A9B68C3F30313D35CD840334B27
:1057F0001860334B1868FCF7E7FC0020CEE7CAB20C
:105800001A701B6803F00F038B42C6D1CEE7294BF9
:1058100011F0040F1EBF9A6842F4E0529A600E071E
:1058200042BF9A6842F460429A609A68A06822F087
:10583000F00202439A60BCE762681E4B012A1CD149
:105840001B6813F4003FA8D01A4EB36823F003037B
:105850001343B360FEF700FD41F288380746B36892
:10586000626803F00C03B3EB820FA4D0FEF7F4FCE4
:10587000C01B4045F3D9032090E7911E01291B6806
:1058800002D813F0007FDEE713F0020FDBE7EAB285
:105890001A701B6803F00F03AB427FF47EAF90E7F2
:1058A0000449E0688B6823F4E05303438B608BE783
:1058B000003C024000380240045D020878000020ED
:1058C00080000020044B054A9B68C3F38223D35C0D
:1058D000034A1068D840704700380240FC5C020858
:1058E000780000200F2303600B4B9A6802F003023C
:1058F00042609A6802F0F00282609A6802F4E05214
:10590000C2609B68DB0803F4E0530361034B1B6830
:1059100003F00F030B60704700380240003C024068
:10592000036813F0430FF7B5044640F088802368FE
:1059300013F00C0F45D08C4B8C4D00221A67FEF7EC
:105940008BFC06462B68990000F1CB8021684A0742
:1059500015D5D4E90403D5F888201B0602F0E042EF
:1059600043EA80131343C5F88830D5F88C30226A97
:1059700023F4F853013A43EA0223C5F88C300B07AD
:1059800014D57A4AA369D2F8881020691B0701F060
:10599000706143EA80130B43C2F88830D2F88C3030
:1059A000616A23F440330B43C2F88C306E4B6F4E68
:1059B00001221A67FEF750FC054633689F0040F14C
:1059C00097802368980634D500230193674B684D70
:1059D0001A6C42F080521A641B6C03F080530193DE
:1059E000019B2B6843F480732B60FEF735FC064661
:1059F0002B68D80540F183805C4DA26A2B6F13F4AD
:105A0000407340F08380A36A03F44072B2F5407F94
:105A1000564A40F09E80916823F0704021F4F811BE
:105A200020F4407001439160116FC3F30B030B43EB
:105A300013672368DB0600F1908000204FE04A4B9B
:105A40004A4E00229A66FEF707FC054633681F019E
:105A50003FD42168C80741BFD4E901231B0743EAAB
:105A60008213C6F884308A0715D5404AE368D2F815
:105A7000840065681B0600F0E04043EA8513034399
:105A8000C2F88430D2F88C00E36920F01F00013B9B
:105A90000343C2F88C304B060AD5E36862681B06E4
:105AA00043EA8213A26843EA0273304AC2F88430A0
:105AB0002D4B2E4E01229A66FEF7CEFB054633682B
:105AC0001F013FF534AFFEF7C7FB401B0228F6D994
:105AD00004E0FEF7C1FB401B0228B7D9032003B046
